{
  "_format": "hh-sol-artifact-1",
  "contractName": "Zkafi",
  "sourceName": "contracts/Zkafi.sol",
  "abi": [
    {
      "inputs": [
        {
          "internalType": "address",
          "name": "_dai",
          "type": "address"
        },
        {
          "internalType": "address",
          "name": "_baseVerifierAddress",
          "type": "address"
        }
      ],
      "stateMutability": "nonpayable",
      "type": "constructor"
    },
    {
      "anonymous": false,
      "inputs": [
        {
          "indexed": true,
          "internalType": "address",
          "name": "owner",
          "type": "address"
        },
        {
          "indexed": true,
          "internalType": "address",
          "name": "spender",
          "type": "address"
        },
        {
          "indexed": false,
          "internalType": "uint256",
          "name": "value",
          "type": "uint256"
        }
      ],
      "name": "Approval",
      "type": "event"
    },
    {
      "anonymous": false,
      "inputs": [
        {
          "indexed": true,
          "internalType": "address",
          "name": "previousOwner",
          "type": "address"
        },
        {
          "indexed": true,
          "internalType": "address",
          "name": "newOwner",
          "type": "address"
        }
      ],
      "name": "OwnershipTransferred",
      "type": "event"
    },
    {
      "anonymous": false,
      "inputs": [
        {
          "indexed": true,
          "internalType": "address",
          "name": "from",
          "type": "address"
        },
        {
          "indexed": true,
          "internalType": "address",
          "name": "to",
          "type": "address"
        },
        {
          "indexed": false,
          "internalType": "uint256",
          "name": "value",
          "type": "uint256"
        }
      ],
      "name": "Transfer",
      "type": "event"
    },
    {
      "inputs": [
        {
          "internalType": "address",
          "name": "owner",
          "type": "address"
        },
        {
          "internalType": "address",
          "name": "spender",
          "type": "address"
        }
      ],
      "name": "allowance",
      "outputs": [
        {
          "internalType": "uint256",
          "name": "",
          "type": "uint256"
        }
      ],
      "stateMutability": "view",
      "type": "function"
    },
    {
      "inputs": [],
      "name": "annualInterestRate",
      "outputs": [
        {
          "internalType": "uint256",
          "name": "",
          "type": "uint256"
        }
      ],
      "stateMutability": "view",
      "type": "function"
    },
    {
      "inputs": [
        {
          "internalType": "address",
          "name": "spender",
          "type": "address"
        },
        {
          "internalType": "uint256",
          "name": "amount",
          "type": "uint256"
        }
      ],
      "name": "approve",
      "outputs": [
        {
          "internalType": "bool",
          "name": "",
          "type": "bool"
        }
      ],
      "stateMutability": "nonpayable",
      "type": "function"
    },
    {
      "inputs": [
        {
          "internalType": "address",
          "name": "account",
          "type": "address"
        }
      ],
      "name": "balanceOf",
      "outputs": [
        {
          "internalType": "uint256",
          "name": "",
          "type": "uint256"
        }
      ],
      "stateMutability": "view",
      "type": "function"
    },
    {
      "inputs": [],
      "name": "baseVerifier",
      "outputs": [
        {
          "internalType": "contract IBaseVerifier",
          "name": "",
          "type": "address"
        }
      ],
      "stateMutability": "view",
      "type": "function"
    },
    {
      "inputs": [
        {
          "internalType": "uint256",
          "name": "_daiAmount",
          "type": "uint256"
        }
      ],
      "name": "bond",
      "outputs": [],
      "stateMutability": "nonpayable",
      "type": "function"
    },
    {
      "inputs": [
        {
          "internalType": "uint256",
          "name": "amount",
          "type": "uint256"
        }
      ],
      "name": "burn",
      "outputs": [],
      "stateMutability": "nonpayable",
      "type": "function"
    },
    {
      "inputs": [
        {
          "internalType": "address",
          "name": "account",
          "type": "address"
        },
        {
          "internalType": "uint256",
          "name": "amount",
          "type": "uint256"
        }
      ],
      "name": "burnFrom",
      "outputs": [],
      "stateMutability": "nonpayable",
      "type": "function"
    },
    {
      "inputs": [
        {
          "internalType": "address",
          "name": "Borrower",
          "type": "address"
        }
      ],
      "name": "calculateRepayAmount",
      "outputs": [
        {
          "internalType": "uint256",
          "name": "",
          "type": "uint256"
        }
      ],
      "stateMutability": "view",
      "type": "function"
    },
    {
      "inputs": [],
      "name": "dai",
      "outputs": [
        {
          "internalType": "contract IERC20",
          "name": "",
          "type": "address"
        }
      ],
      "stateMutability": "view",
      "type": "function"
    },
    {
      "inputs": [],
      "name": "decimals",
      "outputs": [
        {
          "internalType": "uint8",
          "name": "",
          "type": "uint8"
        }
      ],
      "stateMutability": "view",
      "type": "function"
    },
    {
      "inputs": [
        {
          "internalType": "address",
          "name": "spender",
          "type": "address"
        },
        {
          "internalType": "uint256",
          "name": "subtractedValue",
          "type": "uint256"
        }
      ],
      "name": "decreaseAllowance",
      "outputs": [
        {
          "internalType": "bool",
          "name": "",
          "type": "bool"
        }
      ],
      "stateMutability": "nonpayable",
      "type": "function"
    },
    {
      "inputs": [],
      "name": "getUserBorrowedAmount",
      "outputs": [
        {
          "internalType": "uint256",
          "name": "",
          "type": "uint256"
        }
      ],
      "stateMutability": "view",
      "type": "function"
    },
    {
      "inputs": [],
      "name": "getUserBorrowedTimestamp",
      "outputs": [
        {
          "internalType": "uint256",
          "name": "",
          "type": "uint256"
        }
      ],
      "stateMutability": "view",
      "type": "function"
    },
    {
      "inputs": [
        {
          "internalType": "address",
          "name": "spender",
          "type": "address"
        },
        {
          "internalType": "uint256",
          "name": "addedValue",
          "type": "uint256"
        }
      ],
      "name": "increaseAllowance",
      "outputs": [
        {
          "internalType": "bool",
          "name": "",
          "type": "bool"
        }
      ],
      "stateMutability": "nonpayable",
      "type": "function"
    },
    {
      "inputs": [
        {
          "internalType": "uint256",
          "name": "_daiAmount",
          "type": "uint256"
        },
        {
          "internalType": "address",
          "name": "borrower",
          "type": "address"
        }
      ],
      "name": "liquidate",
      "outputs": [],
      "stateMutability": "nonpayable",
      "type": "function"
    },
    {
      "inputs": [],
      "name": "name",
      "outputs": [
        {
          "internalType": "string",
          "name": "",
          "type": "string"
        }
      ],
      "stateMutability": "view",
      "type": "function"
    },
    {
      "inputs": [
        {
          "components": [
            {
              "internalType": "uint256[2]",
              "name": "a",
              "type": "uint256[2]"
            },
            {
              "internalType": "uint256[2][2]",
              "name": "b",
              "type": "uint256[2][2]"
            },
            {
              "internalType": "uint256[2]",
              "name": "c",
              "type": "uint256[2]"
            },
            {
              "internalType": "uint256[2]",
              "name": "input",
              "type": "uint256[2]"
            }
          ],
          "internalType": "struct Zkafi.ProofData",
          "name": "proofData",
          "type": "tuple"
        }
      ],
      "name": "noPermissionBorrow",
      "outputs": [],
      "stateMutability": "nonpayable",
      "type": "function"
    },
    {
      "inputs": [
        {
          "internalType": "uint256",
          "name": "_daiAmount",
          "type": "uint256"
        }
      ],
      "name": "noPermissionRepay",
      "outputs": [],
      "stateMutability": "nonpayable",
      "type": "function"
    },
    {
      "inputs": [],
      "name": "owner",
      "outputs": [
        {
          "internalType": "address",
          "name": "",
          "type": "address"
        }
      ],
      "stateMutability": "view",
      "type": "function"
    },
    {
      "inputs": [],
      "name": "renounceOwnership",
      "outputs": [],
      "stateMutability": "nonpayable",
      "type": "function"
    },
    {
      "inputs": [
        {
          "internalType": "uint256",
          "name": "Rate",
          "type": "uint256"
        }
      ],
      "name": "setAnnualInterestRate",
      "outputs": [],
      "stateMutability": "nonpayable",
      "type": "function"
    },
    {
      "inputs": [
        {
          "internalType": "address",
          "name": "target",
          "type": "address"
        },
        {
          "internalType": "bool",
          "name": "isLiquidator",
          "type": "bool"
        }
      ],
      "name": "setLiquidator",
      "outputs": [],
      "stateMutability": "nonpayable",
      "type": "function"
    },
    {
      "inputs": [],
      "name": "symbol",
      "outputs": [
        {
          "internalType": "string",
          "name": "",
          "type": "string"
        }
      ],
      "stateMutability": "view",
      "type": "function"
    },
    {
      "inputs": [],
      "name": "totalPool",
      "outputs": [
        {
          "internalType": "uint256",
          "name": "",
          "type": "uint256"
        }
      ],
      "stateMutability": "view",
      "type": "function"
    },
    {
      "inputs": [],
      "name": "totalSupply",
      "outputs": [
        {
          "internalType": "uint256",
          "name": "",
          "type": "uint256"
        }
      ],
      "stateMutability": "view",
      "type": "function"
    },
    {
      "inputs": [
        {
          "internalType": "address",
          "name": "to",
          "type": "address"
        },
        {
          "internalType": "uint256",
          "name": "amount",
          "type": "uint256"
        }
      ],
      "name": "transfer",
      "outputs": [
        {
          "internalType": "bool",
          "name": "",
          "type": "bool"
        }
      ],
      "stateMutability": "nonpayable",
      "type": "function"
    },
    {
      "inputs": [
        {
          "internalType": "address",
          "name": "from",
          "type": "address"
        },
        {
          "internalType": "address",
          "name": "to",
          "type": "address"
        },
        {
          "internalType": "uint256",
          "name": "amount",
          "type": "uint256"
        }
      ],
      "name": "transferFrom",
      "outputs": [
        {
          "internalType": "bool",
          "name": "",
          "type": "bool"
        }
      ],
      "stateMutability": "nonpayable",
      "type": "function"
    },
    {
      "inputs": [
        {
          "internalType": "address",
          "name": "newOwner",
          "type": "address"
        }
      ],
      "name": "transferOwnership",
      "outputs": [],
      "stateMutability": "nonpayable",
      "type": "function"
    },
    {
      "inputs": [
        {
          "internalType": "uint256",
          "name": "_zdaiAmount",
          "type": "uint256"
        }
      ],
      "name": "unbond",
      "outputs": [],
      "stateMutability": "nonpayable",
      "type": "function"
    }
  ],
  "bytecode": "0x608060405261012c6008553480156200001757600080fd5b50604051620040013803806200400183398181016040528101906200003d9190620002b1565b6040518060400160405280600481526020017f5a444149000000000000000000000000000000000000000000000000000000008152506040518060400160405280600481526020017f7a646169000000000000000000000000000000000000000000000000000000008152508160039081620000ba919062000572565b508060049081620000cc919062000572565b505050620000ef620000e36200017960201b60201c565b6200018160201b60201c565b81600760006101000a81548173ffffffffffffffffffffffffffffffffffffffff021916908373ffffffffffffffffffffffffffffffffffffffff16021790555080600660006101000a81548173ffffffffffffffffffffffffffffffffffffffff021916908373ffffffffffffffffffffffffffffffffffffffff160217905550505062000659565b600033905090565b6000600560009054906101000a900473ffffffffffffffffffffffffffffffffffffffff16905081600560006101000a81548173ffffffffffffffffffffffffffffffffffffffff021916908373ffffffffffffffffffffffffffffffffffffffff1602179055508173ffffffffffffffffffffffffffffffffffffffff168173ffffffffffffffffffffffffffffffffffffffff167f8be0079c531659141344cd1fd0a4f28419497f9722a3daafe3b4186f6b6457e060405160405180910390a35050565b600080fd5b600073ffffffffffffffffffffffffffffffffffffffff82169050919050565b600062000279826200024c565b9050919050565b6200028b816200026c565b81146200029757600080fd5b50565b600081519050620002ab8162000280565b92915050565b60008060408385031215620002cb57620002ca62000247565b5b6000620002db858286016200029a565b9250506020620002ee858286016200029a565b9150509250929050565b600081519050919050565b7f4e487b7100000000000000000000000000000000000000000000000000000000600052604160045260246000fd5b7f4e487b7100000000000000000000000000000000000000000000000000000000600052602260045260246000fd5b600060028204905060018216806200037a57607f821691505b60208210810362000390576200038f62000332565b5b50919050565b60008190508160005260206000209050919050565b60006020601f8301049050919050565b600082821b905092915050565b600060088302620003fa7fffffffffffffffffffffffffffffffffffffffffffffffffffffffffffffffff82620003bb565b620004068683620003bb565b95508019841693508086168417925050509392505050565b6000819050919050565b6000819050919050565b6000620004536200044d62000447846200041e565b62000428565b6200041e565b9050919050565b6000819050919050565b6200046f8362000432565b620004876200047e826200045a565b848454620003c8565b825550505050565b600090565b6200049e6200048f565b620004ab81848462000464565b505050565b5b81811015620004d357620004c760008262000494565b600181019050620004b1565b5050565b601f8211156200052257620004ec8162000396565b620004f784620003ab565b8101602085101562000507578190505b6200051f6200051685620003ab565b830182620004b0565b50505b505050565b600082821c905092915050565b6000620005476000198460080262000527565b1980831691505092915050565b600062000562838362000534565b9150826002028217905092915050565b6200057d82620002f8565b67ffffffffffffffff81111562000599576200059862000303565b5b620005a5825462000361565b620005b2828285620004d7565b600060209050601f831160018114620005ea5760008415620005d5578287015190505b620005e1858262000554565b86555062000651565b601f198416620005fa8662000396565b60005b828110156200062457848901518255600182019150602085019450602081019050620005fd565b8683101562000644578489015162000640601f89168262000534565b8355505b6001600288020188555050505b505050505050565b61399880620006696000396000f3fe608060405234801561001057600080fd5b50600436106101da5760003560e01c806379cc679011610104578063a457c2d7116100a2578063ecfb49a311610071578063ecfb49a314610543578063f2fde38b14610561578063f4b9fa751461057d578063fe2b612d1461059b576101da565b8063a457c2d714610495578063a9059cbb146104c5578063dd62ed3e146104f5578063ea4a7bd714610525576101da565b8063952c4bc6116100de578063952c4bc61461042157806395d89b411461043d5780639940686e1461045b578063a3f2add814610477576101da565b806379cc6790146103c957806385f28e7d146103e55780638da5cb5b14610403576101da565b80633582c4c81161017c5780634453a3741161014b5780634453a374146103575780635fae8b3d1461037357806370a082311461038f578063715018a6146103bf576101da565b80633582c4c8146102d357806336e99599146102ef578063395093511461030b57806342966c681461033b576101da565b80631a9703da116101b85780631a9703da1461024b57806323b872dd1461026957806327de9e3214610299578063313ce567146102b5576101da565b806306fdde03146101df578063095ea7b3146101fd57806318160ddd1461022d575b600080fd5b6101e76105cb565b6040516101f4919061252f565b60405180910390f35b610217600480360381019061021291906125f4565b61065d565b604051610224919061264f565b60405180910390f35b610235610680565b6040516102429190612679565b60405180910390f35b61025361068a565b6040516102609190612679565b60405180910390f35b610283600480360381019061027e9190612694565b610690565b604051610290919061264f565b60405180910390f35b6102b360048036038101906102ae91906126e7565b6106bf565b005b6102bd61096f565b6040516102ca9190612730565b60405180910390f35b6102ed60048036038101906102e891906126e7565b610978565b005b610309600480360381019061030491906126e7565b61098a565b005b610325600480360381019061032091906125f4565b610c76565b604051610332919061264f565b60405180910390f35b610355600480360381019061035091906126e7565b610cad565b005b610371600480360381019061036c9190612777565b610cc1565b005b61038d600480360381019061038891906127b7565b610d24565b005b6103a960048036038101906103a491906127f7565b61106e565b6040516103b69190612679565b60405180910390f35b6103c76110b6565b005b6103e360048036038101906103de91906125f4565b6110ca565b005b6103ed6110ea565b6040516103fa9190612679565b60405180910390f35b61040b611131565b6040516104189190612833565b60405180910390f35b61043b60048036038101906104369190612ab4565b61115b565b005b6104456114d0565b604051610452919061252f565b60405180910390f35b610475600480360381019061047091906126e7565b611562565b005b61047f6116f6565b60405161048c9190612679565b60405180910390f35b6104af60048036038101906104aa91906125f4565b61173d565b6040516104bc919061264f565b60405180910390f35b6104df60048036038101906104da91906125f4565b6117b4565b6040516104ec919061264f565b60405180910390f35b61050f600480360381019061050a9190612ae2565b6117d7565b60405161051c9190612679565b60405180910390f35b61052d61185e565b60405161053a9190612b81565b60405180910390f35b61054b611884565b6040516105589190612679565b60405180910390f35b61057b600480360381019061057691906127f7565b61188a565b005b61058561190d565b6040516105929190612bbd565b60405180910390f35b6105b560048036038101906105b091906127f7565b611933565b6040516105c29190612679565b60405180910390f35b6060600380546105da90612c07565b80601f016020809104026020016040519081016040528092919081815260200182805461060690612c07565b80156106535780601f1061062857610100808354040283529160200191610653565b820191906000526020600020905b81548152906001019060200180831161063657829003601f168201915b5050505050905090565b600080610668611aa0565b9050610675818585611aa8565b600191505092915050565b6000600254905090565b60085481565b60008061069b611aa0565b90506106a8858285611c71565b6106b3858585611cfd565b60019150509392505050565b60008111610702576040517f08c379a00000000000000000000000000000000000000000000000000000000081526004016106f990612c84565b60405180910390fd5b61070b3361106e565b81111561074d576040517f08c379a000000000000000000000000000000000000000000000000000000000815260040161074490612cf0565b60405180910390fd5b6000600954600760009054906101000a900473ffffffffffffffffffffffffffffffffffffffff1673ffffffffffffffffffffffffffffffffffffffff166370a08231306040518263ffffffff1660e01b81526004016107ad9190612833565b602060405180830381865afa1580156107ca573d6000803e3d6000fd5b505050506040513d601f19601f820116820180604052508101906107ee9190612d25565b836107f99190612d81565b6108039190612df2565b905081600960008282546108179190612e23565b9250508190555061082782610cad565b600760009054906101000a900473ffffffffffffffffffffffffffffffffffffffff1673ffffffffffffffffffffffffffffffffffffffff1663095ea7b330836040518363ffffffff1660e01b8152600401610884929190612e57565b6020604051808303816000875af11580156108a3573d6000803e3d6000fd5b505050506040513d601f19601f820116820180604052508101906108c79190612e95565b50600760009054906101000a900473ffffffffffffffffffffffffffffffffffffffff1673ffffffffffffffffffffffffffffffffffffffff166323b872dd3033846040518463ffffffff1660e01b815260040161092793929190612ec2565b6020604051808303816000875af1158015610946573d6000803e3d6000fd5b505050506040513d601f19601f8201168201806040525081019061096a9190612e95565b505050565b60006012905090565b610980611f73565b8060088190555050565b600760009054906101000a900473ffffffffffffffffffffffffffffffffffffffff1673ffffffffffffffffffffffffffffffffffffffff166370a08231336040518263ffffffff1660e01b81526004016109e59190612833565b602060405180830381865afa158015610a02573d6000803e3d6000fd5b505050506040513d601f19601f82011682018060405250810190610a269190612d25565b811115610a68576040517f08c379a0000000000000000000000000000000000000000000000000000000008152600401610a5f90612f45565b60405180910390fd5b60003073ffffffffffffffffffffffffffffffffffffffff1663fe2b612d336040518263ffffffff1660e01b8152600401610aa39190612833565b602060405180830381865afa158015610ac0573d6000803e3d6000fd5b505050506040513d601f19601f82011682018060405250810190610ae49190612d25565b905080600a60003373ffffffffffffffffffffffffffffffffffffffff1673ffffffffffffffffffffffffffffffffffffffff1681526020019081526020016000208190555080821115610b36578091505b600760009054906101000a900473ffffffffffffffffffffffffffffffffffffffff1673ffffffffffffffffffffffffffffffffffffffff166323b872dd3330856040518463ffffffff1660e01b8152600401610b9593929190612ec2565b6020604051808303816000875af1158015610bb4573d6000803e3d6000fd5b505050506040513d601f19601f82011682018060405250810190610bd89190612e95565b5081600a60003373ffffffffffffffffffffffffffffffffffffffff1673ffffffffffffffffffffffffffffffffffffffff1681526020019081526020016000206000828254610c289190612e23565b92505081905550600b60003373ffffffffffffffffffffffffffffffffffffffff1673ffffffffffffffffffffffffffffffffffffffff168152602001908152602001600020600090555050565b600080610c81611aa0565b9050610ca2818585610c9385896117d7565b610c9d9190612f65565b611aa8565b600191505092915050565b610cbe610cb8611aa0565b82611ff1565b50565b610cc9611f73565b80600c60008473ffffffffffffffffffffffffffffffffffffffff1673ffffffffffffffffffffffffffffffffffffffff16815260200190815260200160002060006101000a81548160ff0219169083151502179055505050565b600760009054906101000a900473ffffffffffffffffffffffffffffffffffffffff1673ffffffffffffffffffffffffffffffffffffffff166370a08231336040518263ffffffff1660e01b8152600401610d7f9190612833565b602060405180830381865afa158015610d9c573d6000803e3d6000fd5b505050506040513d601f19601f82011682018060405250810190610dc09190612d25565b821115610dcc57600080fd5b60011515600c60003373ffffffffffffffffffffffffffffffffffffffff1673ffffffffffffffffffffffffffffffffffffffff16815260200190815260200160002060009054906101000a900460ff16151514610e5f576040517f08c379a0000000000000000000000000000000000000000000000000000000008152600401610e5690612fe5565b60405180910390fd5b60003073ffffffffffffffffffffffffffffffffffffffff1663fe2b612d836040518263ffffffff1660e01b8152600401610e9a9190612833565b602060405180830381865afa158015610eb7573d6000803e3d6000fd5b505050506040513d601f19601f82011682018060405250810190610edb9190612d25565b905080600a60008473ffffffffffffffffffffffffffffffffffffffff1673ffffffffffffffffffffffffffffffffffffffff1681526020019081526020016000208190555080831115610f2d578092505b600760009054906101000a900473ffffffffffffffffffffffffffffffffffffffff1673ffffffffffffffffffffffffffffffffffffffff166323b872dd3330866040518463ffffffff1660e01b8152600401610f8c93929190612ec2565b6020604051808303816000875af1158015610fab573d6000803e3d6000fd5b505050506040513d601f19601f82011682018060405250810190610fcf9190612e95565b5082600a60003373ffffffffffffffffffffffffffffffffffffffff1673ffffffffffffffffffffffffffffffffffffffff168152602001908152602001600020600082825461101f9190612e23565b92505081905550600b60008373ffffffffffffffffffffffffffffffffffffffff1673ffffffffffffffffffffffffffffffffffffffff16815260200190815260200160002060009055505050565b60008060008373ffffffffffffffffffffffffffffffffffffffff1673ffffffffffffffffffffffffffffffffffffffff168152602001908152602001600020549050919050565b6110be611f73565b6110c860006121be565b565b6110dc826110d6611aa0565b83611c71565b6110e68282611ff1565b5050565b6000600a60003373ffffffffffffffffffffffffffffffffffffffff1673ffffffffffffffffffffffffffffffffffffffff16815260200190815260200160002054905090565b6000600560009054906101000a900473ffffffffffffffffffffffffffffffffffffffff16905090565b61116481612284565b6111a3576040517f08c379a000000000000000000000000000000000000000000000000000000000815260040161119a90613051565b60405180910390fd5b6000600a60003373ffffffffffffffffffffffffffffffffffffffff1673ffffffffffffffffffffffffffffffffffffffff1681526020019081526020016000205414611225576040517f08c379a000000000000000000000000000000000000000000000000000000000815260040161121c906130bd565b60405180910390fd5b6000816060015160016002811061123f5761123e6130dd565b5b60200201519050600760009054906101000a900473ffffffffffffffffffffffffffffffffffffffff1673ffffffffffffffffffffffffffffffffffffffff166370a08231306040518263ffffffff1660e01b81526004016112a19190612833565b602060405180830381865afa1580156112be573d6000803e3d6000fd5b505050506040513d601f19601f820116820180604052508101906112e29190612d25565b8111156112ee57600080fd5b80600a60003373ffffffffffffffffffffffffffffffffffffffff1673ffffffffffffffffffffffffffffffffffffffff168152602001908152602001600020600082825461133d9190612f65565b9250508190555042600b60003373ffffffffffffffffffffffffffffffffffffffff1673ffffffffffffffffffffffffffffffffffffffff16815260200190815260200160002081905550600760009054906101000a900473ffffffffffffffffffffffffffffffffffffffff1673ffffffffffffffffffffffffffffffffffffffff1663095ea7b330836040518363ffffffff1660e01b81526004016113e5929190612e57565b6020604051808303816000875af1158015611404573d6000803e3d6000fd5b505050506040513d601f19601f820116820180604052508101906114289190612e95565b50600760009054906101000a900473ffffffffffffffffffffffffffffffffffffffff1673ffffffffffffffffffffffffffffffffffffffff166323b872dd3033846040518463ffffffff1660e01b815260040161148893929190612ec2565b6020604051808303816000875af11580156114a7573d6000803e3d6000fd5b505050506040513d601f19601f820116820180604052508101906114cb9190612e95565b505050565b6060600480546114df90612c07565b80601f016020809104026020016040519081016040528092919081815260200182805461150b90612c07565b80156115585780601f1061152d57610100808354040283529160200191611558565b820191906000526020600020905b81548152906001019060200180831161153b57829003601f168201915b5050505050905090565b600080600954036115755781905061162c565b600760009054906101000a900473ffffffffffffffffffffffffffffffffffffffff1673ffffffffffffffffffffffffffffffffffffffff166370a08231306040518263ffffffff1660e01b81526004016115d09190612833565b602060405180830381865afa1580156115ed573d6000803e3d6000fd5b505050506040513d601f19601f820116820180604052508101906116119190612d25565b6009548361161f9190612d81565b6116299190612df2565b90505b600760009054906101000a900473ffffffffffffffffffffffffffffffffffffffff1673ffffffffffffffffffffffffffffffffffffffff166323b872dd3330856040518463ffffffff1660e01b815260040161168b93929190612ec2565b6020604051808303816000875af11580156116aa573d6000803e3d6000fd5b505050506040513d601f19601f820116820180604052508101906116ce9190612e95565b5080600960008282546116e19190612f65565b925050819055506116f2338261233f565b5050565b6000600b60003373ffffffffffffffffffffffffffffffffffffffff1673ffffffffffffffffffffffffffffffffffffffff16815260200190815260200160002054905090565b600080611748611aa0565b9050600061175682866117d7565b90508381101561179b576040517f08c379a00000000000000000000000000000000000000000000000000000000081526004016117929061317e565b60405180910390fd5b6117a88286868403611aa8565b60019250505092915050565b6000806117bf611aa0565b90506117cc818585611cfd565b600191505092915050565b6000600160008473ffffffffffffffffffffffffffffffffffffffff1673ffffffffffffffffffffffffffffffffffffffff16815260200190815260200160002060008373ffffffffffffffffffffffffffffffffffffffff1673ffffffffffffffffffffffffffffffffffffffff16815260200190815260200160002054905092915050565b600660009054906101000a900473ffffffffffffffffffffffffffffffffffffffff1681565b60095481565b611892611f73565b600073ffffffffffffffffffffffffffffffffffffffff168173ffffffffffffffffffffffffffffffffffffffff1603611901576040517f08c379a00000000000000000000000000000000000000000000000000000000081526004016118f890613210565b60405180910390fd5b61190a816121be565b50565b600760009054906101000a900473ffffffffffffffffffffffffffffffffffffffff1681565b600080600b60008473ffffffffffffffffffffffffffffffffffffffff1673ffffffffffffffffffffffffffffffffffffffff16815260200190815260200160002054036119845760009050611a9b565b60006301e13380612710600854600b60008773ffffffffffffffffffffffffffffffffffffffff1673ffffffffffffffffffffffffffffffffffffffff16815260200190815260200160002054426119dc9190612e23565b600a60008873ffffffffffffffffffffffffffffffffffffffff1673ffffffffffffffffffffffffffffffffffffffff16815260200190815260200160002054611a269190612d81565b611a309190612d81565b611a3a9190612df2565b611a449190612df2565b9050600081600a60008673ffffffffffffffffffffffffffffffffffffffff1673ffffffffffffffffffffffffffffffffffffffff16815260200190815260200160002054611a939190612f65565b905080925050505b919050565b600033905090565b600073ffffffffffffffffffffffffffffffffffffffff168373ffffffffffffffffffffffffffffffffffffffff1603611b17576040517f08c379a0000000000000000000000000000000000000000000000000000000008152600401611b0e906132a2565b60405180910390fd5b600073ffffffffffffffffffffffffffffffffffffffff168273ffffffffffffffffffffffffffffffffffffffff1603611b86576040517f08c379a0000000000000000000000000000000000000000000000000000000008152600401611b7d90613334565b60405180910390fd5b80600160008573ffffffffffffffffffffffffffffffffffffffff1673ffffffffffffffffffffffffffffffffffffffff16815260200190815260200160002060008473ffffffffffffffffffffffffffffffffffffffff1673ffffffffffffffffffffffffffffffffffffffff168152602001908152602001600020819055508173ffffffffffffffffffffffffffffffffffffffff168373ffffffffffffffffffffffffffffffffffffffff167f8c5be1e5ebec7d5bd14f71427d1e84f3dd0314c0f7b2291e5b200ac8c7c3b92583604051611c649190612679565b60405180910390a3505050565b6000611c7d84846117d7565b90507fffffffffffffffffffffffffffffffffffffffffffffffffffffffffffffffff8114611cf75781811015611ce9576040517f08c379a0000000000000000000000000000000000000000000000000000000008152600401611ce0906133a0565b60405180910390fd5b611cf68484848403611aa8565b5b50505050565b600073ffffffffffffffffffffffffffffffffffffffff168373ffffffffffffffffffffffffffffffffffffffff1603611d6c576040517f08c379a0000000000000000000000000000000000000000000000000000000008152600401611d6390613432565b60405180910390fd5b600073ffffffffffffffffffffffffffffffffffffffff168273ffffffffffffffffffffffffffffffffffffffff1603611ddb576040517f08c379a0000000000000000000000000000000000000000000000000000000008152600401611dd2906134c4565b60405180910390fd5b611de6838383612495565b60008060008573ffffffffffffffffffffffffffffffffffffffff1673ffffffffffffffffffffffffffffffffffffffff16815260200190815260200160002054905081811015611e6c576040517f08c379a0000000000000000000000000000000000000000000000000000000008152600401611e6390613556565b60405180910390fd5b8181036000808673ffffffffffffffffffffffffffffffffffffffff1673ffffffffffffffffffffffffffffffffffffffff16815260200190815260200160002081905550816000808573ffffffffffffffffffffffffffffffffffffffff1673ffffffffffffffffffffffffffffffffffffffff168152602001908152602001600020600082825401925050819055508273ffffffffffffffffffffffffffffffffffffffff168473ffffffffffffffffffffffffffffffffffffffff167fddf252ad1be2c89b69c2b068fc378daa952ba7f163c4a11628f55a4df523b3ef84604051611f5a9190612679565b60405180910390a3611f6d84848461249a565b50505050565b611f7b611aa0565b73ffffffffffffffffffffffffffffffffffffffff16611f99611131565b73ffffffffffffffffffffffffffffffffffffffff1614611fef576040517f08c379a0000000000000000000000000000000000000000000000000000000008152600401611fe6906135c2565b60405180910390fd5b565b600073ffffffffffffffffffffffffffffffffffffffff168273ffffffffffffffffffffffffffffffffffffffff1603612060576040517f08c379a000000000000000000000000000000000000000000000000000000000815260040161205790613654565b60405180910390fd5b61206c82600083612495565b60008060008473ffffffffffffffffffffffffffffffffffffffff1673ffffffffffffffffffffffffffffffffffffffff168152602001908152602001600020549050818110156120f2576040517f08c379a00000000000000000000000000000000000000000000000000000000081526004016120e9906136e6565b60405180910390fd5b8181036000808573ffffffffffffffffffffffffffffffffffffffff1673ffffffffffffffffffffffffffffffffffffffff1681526020019081526020016000208190555081600260008282540392505081905550600073ffffffffffffffffffffffffffffffffffffffff168373ffffffffffffffffffffffffffffffffffffffff167fddf252ad1be2c89b69c2b068fc378daa952ba7f163c4a11628f55a4df523b3ef846040516121a59190612679565b60405180910390a36121b98360008461249a565b505050565b6000600560009054906101000a900473ffffffffffffffffffffffffffffffffffffffff16905081600560006101000a81548173ffffffffffffffffffffffffffffffffffffffff021916908373ffffffffffffffffffffffffffffffffffffffff1602179055508173ffffffffffffffffffffffffffffffffffffffff168173ffffffffffffffffffffffffffffffffffffffff167f8be0079c531659141344cd1fd0a4f28419497f9722a3daafe3b4186f6b6457e060405160405180910390a35050565b6000600660009054906101000a900473ffffffffffffffffffffffffffffffffffffffff1673ffffffffffffffffffffffffffffffffffffffff1663f5c9d69e83600001518460200151856040015186606001516040518563ffffffff1660e01b81526004016122f794939291906138af565b602060405180830381865afa158015612314573d6000803e3d6000fd5b505050506040513d601f19601f820116820180604052508101906123389190612e95565b9050919050565b600073ffffffffffffffffffffffffffffffffffffffff168273ffffffffffffffffffffffffffffffffffffffff16036123ae576040517f08c379a00000000000000000000000000000000000000000000000000000000081526004016123a590613942565b60405180910390fd5b6123ba60008383612495565b80600260008282546123cc9190612f65565b92505081905550806000808473ffffffffffffffffffffffffffffffffffffffff1673ffffffffffffffffffffffffffffffffffffffff168152602001908152602001600020600082825401925050819055508173ffffffffffffffffffffffffffffffffffffffff16600073ffffffffffffffffffffffffffffffffffffffff167fddf252ad1be2c89b69c2b068fc378daa952ba7f163c4a11628f55a4df523b3ef8360405161247d9190612679565b60405180910390a36124916000838361249a565b5050565b505050565b505050565b600081519050919050565b600082825260208201905092915050565b60005b838110156124d95780820151818401526020810190506124be565b60008484015250505050565b6000601f19601f8301169050919050565b60006125018261249f565b61250b81856124aa565b935061251b8185602086016124bb565b612524816124e5565b840191505092915050565b6000602082019050818103600083015261254981846124f6565b905092915050565b6000604051905090565b600080fd5b600073ffffffffffffffffffffffffffffffffffffffff82169050919050565b600061258b82612560565b9050919050565b61259b81612580565b81146125a657600080fd5b50565b6000813590506125b881612592565b92915050565b6000819050919050565b6125d1816125be565b81146125dc57600080fd5b50565b6000813590506125ee816125c8565b92915050565b6000806040838503121561260b5761260a61255b565b5b6000612619858286016125a9565b925050602061262a858286016125df565b9150509250929050565b60008115159050919050565b61264981612634565b82525050565b60006020820190506126646000830184612640565b92915050565b612673816125be565b82525050565b600060208201905061268e600083018461266a565b92915050565b6000806000606084860312156126ad576126ac61255b565b5b60006126bb868287016125a9565b93505060206126cc868287016125a9565b92505060406126dd868287016125df565b9150509250925092565b6000602082840312156126fd576126fc61255b565b5b600061270b848285016125df565b91505092915050565b600060ff82169050919050565b61272a81612714565b82525050565b60006020820190506127456000830184612721565b92915050565b61275481612634565b811461275f57600080fd5b50565b6000813590506127718161274b565b92915050565b6000806040838503121561278e5761278d61255b565b5b600061279c858286016125a9565b92505060206127ad85828601612762565b9150509250929050565b600080604083850312156127ce576127cd61255b565b5b60006127dc858286016125df565b92505060206127ed858286016125a9565b9150509250929050565b60006020828403121561280d5761280c61255b565b5b600061281b848285016125a9565b91505092915050565b61282d81612580565b82525050565b60006020820190506128486000830184612824565b92915050565b600080fd5b7f4e487b7100000000000000000000000000000000000000000000000000000000600052604160045260246000fd5b61288b826124e5565b810181811067ffffffffffffffff821117156128aa576128a9612853565b5b80604052505050565b60006128bd612551565b90506128c98282612882565b919050565b600080fd5b600067ffffffffffffffff8211156128ee576128ed612853565b5b602082029050919050565b600080fd5b600061291161290c846128d3565b6128b3565b9050806020840283018581111561292b5761292a6128f9565b5b835b81811015612954578061294088826125df565b84526020840193505060208101905061292d565b5050509392505050565b600082601f830112612973576129726128ce565b5b60026129808482856128fe565b91505092915050565b600067ffffffffffffffff8211156129a4576129a3612853565b5b602082029050919050565b60006129c26129bd84612989565b6128b3565b905080604084028301858111156129dc576129db6128f9565b5b835b81811015612a0557806129f1888261295e565b8452602084019350506040810190506129de565b5050509392505050565b600082601f830112612a2457612a236128ce565b5b6002612a318482856129af565b91505092915050565b60006101408284031215612a5157612a5061284e565b5b612a5b60806128b3565b90506000612a6b8482850161295e565b6000830152506040612a7f84828501612a0f565b60208301525060c0612a938482850161295e565b604083015250610100612aa88482850161295e565b60608301525092915050565b60006101408284031215612acb57612aca61255b565b5b6000612ad984828501612a3a565b91505092915050565b60008060408385031215612af957612af861255b565b5b6000612b07858286016125a9565b9250506020612b18858286016125a9565b9150509250929050565b6000819050919050565b6000612b47612b42612b3d84612560565b612b22565b612560565b9050919050565b6000612b5982612b2c565b9050919050565b6000612b6b82612b4e565b9050919050565b612b7b81612b60565b82525050565b6000602082019050612b966000830184612b72565b92915050565b6000612ba782612b4e565b9050919050565b612bb781612b9c565b82525050565b6000602082019050612bd26000830184612bae565b92915050565b7f4e487b7100000000000000000000000000000000000000000000000000000000600052602260045260246000fd5b60006002820490506001821680612c1f57607f821691505b602082108103612c3257612c31612bd8565b5b50919050565b7f7a646169203d2030000000000000000000000000000000000000000000000000600082015250565b6000612c6e6008836124aa565b9150612c7982612c38565b602082019050919050565b60006020820190508181036000830152612c9d81612c61565b9050919050565b7f7a646169204e6f7420656e6f7567680000000000000000000000000000000000600082015250565b6000612cda600f836124aa565b9150612ce582612ca4565b602082019050919050565b60006020820190508181036000830152612d0981612ccd565b9050919050565b600081519050612d1f816125c8565b92915050565b600060208284031215612d3b57612d3a61255b565b5b6000612d4984828501612d10565b91505092915050565b7f4e487b7100000000000000000000000000000000000000000000000000000000600052601160045260246000fd5b6000612d8c826125be565b9150612d97836125be565b9250828202612da5816125be565b91508282048414831517612dbc57612dbb612d52565b5b5092915050565b7f4e487b7100000000000000000000000000000000000000000000000000000000600052601260045260246000fd5b6000612dfd826125be565b9150612e08836125be565b925082612e1857612e17612dc3565b5b828204905092915050565b6000612e2e826125be565b9150612e39836125be565b9250828203905081811115612e5157612e50612d52565b5b92915050565b6000604082019050612e6c6000830185612824565b612e79602083018461266a565b9392505050565b600081519050612e8f8161274b565b92915050565b600060208284031215612eab57612eaa61255b565b5b6000612eb984828501612e80565b91505092915050565b6000606082019050612ed76000830186612824565b612ee46020830185612824565b612ef1604083018461266a565b949350505050565b7f4e6f20656e6f7567682064616900000000000000000000000000000000000000600082015250565b6000612f2f600d836124aa565b9150612f3a82612ef9565b602082019050919050565b60006020820190508181036000830152612f5e81612f22565b9050919050565b6000612f70826125be565b9150612f7b836125be565b9250828201905080821115612f9357612f92612d52565b5b92915050565b7f596f7520617265206e6f74206c697175696461746f7200000000000000000000600082015250565b6000612fcf6016836124aa565b9150612fda82612f99565b602082019050919050565b60006020820190508181036000830152612ffe81612fc2565b9050919050565b7f566572696669636174696f6e204661696c656400000000000000000000000000600082015250565b600061303b6013836124aa565b915061304682613005565b602082019050919050565b6000602082019050818103600083015261306a8161302e565b9050919050565b7f596f752073686f756c6420726570617920646562742066697273740000000000600082015250565b60006130a7601b836124aa565b91506130b282613071565b602082019050919050565b600060208201905081810360008301526130d68161309a565b9050919050565b7f4e487b7100000000000000000000000000000000000000000000000000000000600052603260045260246000fd5b7f45524332303a2064656372656173656420616c6c6f77616e63652062656c6f7760008201527f207a65726f000000000000000000000000000000000000000000000000000000602082015250565b60006131686025836124aa565b91506131738261310c565b604082019050919050565b600060208201905081810360008301526131978161315b565b9050919050565b7f4f776e61626c653a206e6577206f776e657220697320746865207a65726f206160008201527f6464726573730000000000000000000000000000000000000000000000000000602082015250565b60006131fa6026836124aa565b91506132058261319e565b604082019050919050565b60006020820190508181036000830152613229816131ed565b9050919050565b7f45524332303a20617070726f76652066726f6d20746865207a65726f2061646460008201527f7265737300000000000000000000000000000000000000000000000000000000602082015250565b600061328c6024836124aa565b915061329782613230565b604082019050919050565b600060208201905081810360008301526132bb8161327f565b9050919050565b7f45524332303a20617070726f766520746f20746865207a65726f20616464726560008201527f7373000000000000000000000000000000000000000000000000000000000000602082015250565b600061331e6022836124aa565b9150613329826132c2565b604082019050919050565b6000602082019050818103600083015261334d81613311565b9050919050565b7f45524332303a20696e73756666696369656e7420616c6c6f77616e6365000000600082015250565b600061338a601d836124aa565b915061339582613354565b602082019050919050565b600060208201905081810360008301526133b98161337d565b9050919050565b7f45524332303a207472616e736665722066726f6d20746865207a65726f20616460008201527f6472657373000000000000000000000000000000000000000000000000000000602082015250565b600061341c6025836124aa565b9150613427826133c0565b604082019050919050565b6000602082019050818103600083015261344b8161340f565b9050919050565b7f45524332303a207472616e7366657220746f20746865207a65726f206164647260008201527f6573730000000000000000000000000000000000000000000000000000000000602082015250565b60006134ae6023836124aa565b91506134b982613452565b604082019050919050565b600060208201905081810360008301526134dd816134a1565b9050919050565b7f45524332303a207472616e7366657220616d6f756e742065786365656473206260008201527f616c616e63650000000000000000000000000000000000000000000000000000602082015250565b60006135406026836124aa565b915061354b826134e4565b604082019050919050565b6000602082019050818103600083015261356f81613533565b9050919050565b7f4f776e61626c653a2063616c6c6572206973206e6f7420746865206f776e6572600082015250565b60006135ac6020836124aa565b91506135b782613576565b602082019050919050565b600060208201905081810360008301526135db8161359f565b9050919050565b7f45524332303a206275726e2066726f6d20746865207a65726f2061646472657360008201527f7300000000000000000000000000000000000000000000000000000000000000602082015250565b600061363e6021836124aa565b9150613649826135e2565b604082019050919050565b6000602082019050818103600083015261366d81613631565b9050919050565b7f45524332303a206275726e20616d6f756e7420657863656564732062616c616e60008201527f6365000000000000000000000000000000000000000000000000000000000000602082015250565b60006136d06022836124aa565b91506136db82613674565b604082019050919050565b600060208201905081810360008301526136ff816136c3565b9050919050565b600060029050919050565b600081905092915050565b6000819050919050565b61372f816125be565b82525050565b60006137418383613726565b60208301905092915050565b6000602082019050919050565b61376381613706565b61376d8184613711565b92506137788261371c565b8060005b838110156137a95781516137908782613735565b965061379b8361374d565b92505060018101905061377c565b505050505050565b600060029050919050565b600081905092915050565b6000819050919050565b600081905092915050565b6137e581613706565b6137ef81846137d1565b92506137fa8261371c565b8060005b8381101561382b5781516138128782613735565b965061381d8361374d565b9250506001810190506137fe565b505050505050565b600061383f83836137dc565b60408301905092915050565b6000602082019050919050565b613861816137b1565b61386b81846137bc565b9250613876826137c7565b8060005b838110156138a757815161388e8782613833565b96506138998361384b565b92505060018101905061387a565b505050505050565b6000610140820190506138c5600083018761375a565b6138d26040830186613858565b6138df60c083018561375a565b6138ed61010083018461375a565b95945050505050565b7f45524332303a206d696e7420746f20746865207a65726f206164647265737300600082015250565b600061392c601f836124aa565b9150613937826138f6565b602082019050919050565b6000602082019050818103600083015261395b8161391f565b905091905056fea2646970667358221220fb118dc6b8e75c992a86c1dfe35bbeb3d196f16d81c89ce695dadaaf23d7ee2264736f6c63430008110033",
  "linkReferences": {},
  "deployedLinkReferences": {}
}