{
  "_format": "hh-sol-artifact-1",
  "contractName": "Zkafi",
  "sourceName": "contracts/Zkafi.sol",
  "abi": [
    {
      "inputs": [
        {
          "internalType": "address",
          "name": "_dai",
          "type": "address"
        },
        {
          "internalType": "address",
          "name": "_baseVerifierAddress",
          "type": "address"
        }
      ],
      "stateMutability": "nonpayable",
      "type": "constructor"
    },
    {
      "anonymous": false,
      "inputs": [
        {
          "indexed": true,
          "internalType": "address",
          "name": "owner",
          "type": "address"
        },
        {
          "indexed": true,
          "internalType": "address",
          "name": "spender",
          "type": "address"
        },
        {
          "indexed": false,
          "internalType": "uint256",
          "name": "value",
          "type": "uint256"
        }
      ],
      "name": "Approval",
      "type": "event"
    },
    {
      "anonymous": false,
      "inputs": [
        {
          "indexed": true,
          "internalType": "address",
          "name": "previousOwner",
          "type": "address"
        },
        {
          "indexed": true,
          "internalType": "address",
          "name": "newOwner",
          "type": "address"
        }
      ],
      "name": "OwnershipTransferred",
      "type": "event"
    },
    {
      "anonymous": false,
      "inputs": [
        {
          "indexed": true,
          "internalType": "address",
          "name": "from",
          "type": "address"
        },
        {
          "indexed": true,
          "internalType": "address",
          "name": "to",
          "type": "address"
        },
        {
          "indexed": false,
          "internalType": "uint256",
          "name": "value",
          "type": "uint256"
        }
      ],
      "name": "Transfer",
      "type": "event"
    },
    {
      "inputs": [
        {
          "internalType": "address",
          "name": "owner",
          "type": "address"
        },
        {
          "internalType": "address",
          "name": "spender",
          "type": "address"
        }
      ],
      "name": "allowance",
      "outputs": [
        {
          "internalType": "uint256",
          "name": "",
          "type": "uint256"
        }
      ],
      "stateMutability": "view",
      "type": "function"
    },
    {
      "inputs": [],
      "name": "annualInterestRate",
      "outputs": [
        {
          "internalType": "uint256",
          "name": "",
          "type": "uint256"
        }
      ],
      "stateMutability": "view",
      "type": "function"
    },
    {
      "inputs": [
        {
          "internalType": "address",
          "name": "spender",
          "type": "address"
        },
        {
          "internalType": "uint256",
          "name": "amount",
          "type": "uint256"
        }
      ],
      "name": "approve",
      "outputs": [
        {
          "internalType": "bool",
          "name": "",
          "type": "bool"
        }
      ],
      "stateMutability": "nonpayable",
      "type": "function"
    },
    {
      "inputs": [
        {
          "internalType": "address",
          "name": "account",
          "type": "address"
        }
      ],
      "name": "balanceOf",
      "outputs": [
        {
          "internalType": "uint256",
          "name": "",
          "type": "uint256"
        }
      ],
      "stateMutability": "view",
      "type": "function"
    },
    {
      "inputs": [],
      "name": "baseVerifier",
      "outputs": [
        {
          "internalType": "contract IBaseVerifier",
          "name": "",
          "type": "address"
        }
      ],
      "stateMutability": "view",
      "type": "function"
    },
    {
      "inputs": [
        {
          "internalType": "uint256",
          "name": "_daiAmount",
          "type": "uint256"
        }
      ],
      "name": "bond",
      "outputs": [],
      "stateMutability": "nonpayable",
      "type": "function"
    },
    {
      "inputs": [
        {
          "internalType": "uint256",
          "name": "amount",
          "type": "uint256"
        }
      ],
      "name": "burn",
      "outputs": [],
      "stateMutability": "nonpayable",
      "type": "function"
    },
    {
      "inputs": [
        {
          "internalType": "address",
          "name": "account",
          "type": "address"
        },
        {
          "internalType": "uint256",
          "name": "amount",
          "type": "uint256"
        }
      ],
      "name": "burnFrom",
      "outputs": [],
      "stateMutability": "nonpayable",
      "type": "function"
    },
    {
      "inputs": [
        {
          "internalType": "address",
          "name": "borrower",
          "type": "address"
        }
      ],
      "name": "calculateRepayAmount",
      "outputs": [
        {
          "internalType": "uint256",
          "name": "",
          "type": "uint256"
        }
      ],
      "stateMutability": "view",
      "type": "function"
    },
    {
      "inputs": [],
      "name": "dai",
      "outputs": [
        {
          "internalType": "contract IERC20",
          "name": "",
          "type": "address"
        }
      ],
      "stateMutability": "view",
      "type": "function"
    },
    {
      "inputs": [],
      "name": "decimals",
      "outputs": [
        {
          "internalType": "uint8",
          "name": "",
          "type": "uint8"
        }
      ],
      "stateMutability": "view",
      "type": "function"
    },
    {
      "inputs": [
        {
          "internalType": "address",
          "name": "spender",
          "type": "address"
        },
        {
          "internalType": "uint256",
          "name": "subtractedValue",
          "type": "uint256"
        }
      ],
      "name": "decreaseAllowance",
      "outputs": [
        {
          "internalType": "bool",
          "name": "",
          "type": "bool"
        }
      ],
      "stateMutability": "nonpayable",
      "type": "function"
    },
    {
      "inputs": [],
      "name": "getUserBorrowedAmount",
      "outputs": [
        {
          "internalType": "uint256",
          "name": "",
          "type": "uint256"
        }
      ],
      "stateMutability": "view",
      "type": "function"
    },
    {
      "inputs": [],
      "name": "getUserBorrowedTimestamp",
      "outputs": [
        {
          "internalType": "uint256",
          "name": "",
          "type": "uint256"
        }
      ],
      "stateMutability": "view",
      "type": "function"
    },
    {
      "inputs": [
        {
          "internalType": "address",
          "name": "spender",
          "type": "address"
        },
        {
          "internalType": "uint256",
          "name": "addedValue",
          "type": "uint256"
        }
      ],
      "name": "increaseAllowance",
      "outputs": [
        {
          "internalType": "bool",
          "name": "",
          "type": "bool"
        }
      ],
      "stateMutability": "nonpayable",
      "type": "function"
    },
    {
      "inputs": [
        {
          "internalType": "uint256",
          "name": "_daiAmount",
          "type": "uint256"
        },
        {
          "internalType": "address",
          "name": "borrower",
          "type": "address"
        }
      ],
      "name": "liquidate",
      "outputs": [],
      "stateMutability": "nonpayable",
      "type": "function"
    },
    {
      "inputs": [],
      "name": "name",
      "outputs": [
        {
          "internalType": "string",
          "name": "",
          "type": "string"
        }
      ],
      "stateMutability": "view",
      "type": "function"
    },
    {
      "inputs": [
        {
          "components": [
            {
              "internalType": "uint256[2]",
              "name": "a",
              "type": "uint256[2]"
            },
            {
              "internalType": "uint256[2][2]",
              "name": "b",
              "type": "uint256[2][2]"
            },
            {
              "internalType": "uint256[2]",
              "name": "c",
              "type": "uint256[2]"
            },
            {
              "internalType": "uint256[2]",
              "name": "input",
              "type": "uint256[2]"
            }
          ],
          "internalType": "struct Zkafi.ProofData",
          "name": "proofData",
          "type": "tuple"
        }
      ],
      "name": "noPermissionBorrow",
      "outputs": [],
      "stateMutability": "nonpayable",
      "type": "function"
    },
    {
      "inputs": [
        {
          "internalType": "uint256",
          "name": "_daiAmount",
          "type": "uint256"
        }
      ],
      "name": "noPermissionRepay",
      "outputs": [],
      "stateMutability": "nonpayable",
      "type": "function"
    },
    {
      "inputs": [],
      "name": "owner",
      "outputs": [
        {
          "internalType": "address",
          "name": "",
          "type": "address"
        }
      ],
      "stateMutability": "view",
      "type": "function"
    },
    {
      "inputs": [],
      "name": "renounceOwnership",
      "outputs": [],
      "stateMutability": "nonpayable",
      "type": "function"
    },
    {
      "inputs": [
        {
          "internalType": "uint256",
          "name": "Rate",
          "type": "uint256"
        }
      ],
      "name": "setAnnualInterestRate",
      "outputs": [],
      "stateMutability": "nonpayable",
      "type": "function"
    },
    {
      "inputs": [
        {
          "internalType": "address",
          "name": "target",
          "type": "address"
        },
        {
          "internalType": "bool",
          "name": "isLiquidator",
          "type": "bool"
        }
      ],
      "name": "setLiquidator",
      "outputs": [],
      "stateMutability": "nonpayable",
      "type": "function"
    },
    {
      "inputs": [],
      "name": "symbol",
      "outputs": [
        {
          "internalType": "string",
          "name": "",
          "type": "string"
        }
      ],
      "stateMutability": "view",
      "type": "function"
    },
    {
      "inputs": [],
      "name": "totalPool",
      "outputs": [
        {
          "internalType": "uint256",
          "name": "",
          "type": "uint256"
        }
      ],
      "stateMutability": "view",
      "type": "function"
    },
    {
      "inputs": [],
      "name": "totalSupply",
      "outputs": [
        {
          "internalType": "uint256",
          "name": "",
          "type": "uint256"
        }
      ],
      "stateMutability": "view",
      "type": "function"
    },
    {
      "inputs": [
        {
          "internalType": "address",
          "name": "to",
          "type": "address"
        },
        {
          "internalType": "uint256",
          "name": "amount",
          "type": "uint256"
        }
      ],
      "name": "transfer",
      "outputs": [
        {
          "internalType": "bool",
          "name": "",
          "type": "bool"
        }
      ],
      "stateMutability": "nonpayable",
      "type": "function"
    },
    {
      "inputs": [
        {
          "internalType": "address",
          "name": "from",
          "type": "address"
        },
        {
          "internalType": "address",
          "name": "to",
          "type": "address"
        },
        {
          "internalType": "uint256",
          "name": "amount",
          "type": "uint256"
        }
      ],
      "name": "transferFrom",
      "outputs": [
        {
          "internalType": "bool",
          "name": "",
          "type": "bool"
        }
      ],
      "stateMutability": "nonpayable",
      "type": "function"
    },
    {
      "inputs": [
        {
          "internalType": "address",
          "name": "newOwner",
          "type": "address"
        }
      ],
      "name": "transferOwnership",
      "outputs": [],
      "stateMutability": "nonpayable",
      "type": "function"
    },
    {
      "inputs": [
        {
          "internalType": "uint256",
          "name": "_zdaiAmount",
          "type": "uint256"
        }
      ],
      "name": "unbond",
      "outputs": [],
      "stateMutability": "nonpayable",
      "type": "function"
    }
  ],
  "bytecode": "0x6080604052666a94d74f4300006008556301e133806008546200002391906200029c565b6009553480156200003357600080fd5b506040516200403c3803806200403c83398181016040528101906200005991906200033e565b6040518060400160405280600481526020017f5a444149000000000000000000000000000000000000000000000000000000008152506040518060400160405280600481526020017f7a646169000000000000000000000000000000000000000000000000000000008152508160039081620000d69190620005f5565b508060049081620000e89190620005f5565b5050506200010b620000ff6200019560201b60201c565b6200019d60201b60201c565b81600760006101000a81548173ffffffffffffffffffffffffffffffffffffffff021916908373ffffffffffffffffffffffffffffffffffffffff16021790555080600660006101000a81548173ffffffffffffffffffffffffffffffffffffffff021916908373ffffffffffffffffffffffffffffffffffffffff1602179055505050620006dc565b600033905090565b6000600560009054906101000a900473ffffffffffffffffffffffffffffffffffffffff16905081600560006101000a81548173ffffffffffffffffffffffffffffffffffffffff021916908373ffffffffffffffffffffffffffffffffffffffff1602179055508173ffffffffffffffffffffffffffffffffffffffff168173ffffffffffffffffffffffffffffffffffffffff167f8be0079c531659141344cd1fd0a4f28419497f9722a3daafe3b4186f6b6457e060405160405180910390a35050565b6000819050919050565b7f4e487b7100000000000000000000000000000000000000000000000000000000600052601260045260246000fd5b6000620002a98262000263565b9150620002b68362000263565b925082620002c957620002c86200026d565b5b828204905092915050565b600080fd5b600073ffffffffffffffffffffffffffffffffffffffff82169050919050565b60006200030682620002d9565b9050919050565b6200031881620002f9565b81146200032457600080fd5b50565b60008151905062000338816200030d565b92915050565b60008060408385031215620003585762000357620002d4565b5b6000620003688582860162000327565b92505060206200037b8582860162000327565b9150509250929050565b600081519050919050565b7f4e487b7100000000000000000000000000000000000000000000000000000000600052604160045260246000fd5b7f4e487b7100000000000000000000000000000000000000000000000000000000600052602260045260246000fd5b600060028204905060018216806200040757607f821691505b6020821081036200041d576200041c620003bf565b5b50919050565b60008190508160005260206000209050919050565b60006020601f8301049050919050565b600082821b905092915050565b600060088302620004877fffffffffffffffffffffffffffffffffffffffffffffffffffffffffffffffff8262000448565b62000493868362000448565b95508019841693508086168417925050509392505050565b6000819050919050565b6000620004d6620004d0620004ca8462000263565b620004ab565b62000263565b9050919050565b6000819050919050565b620004f283620004b5565b6200050a6200050182620004dd565b84845462000455565b825550505050565b600090565b6200052162000512565b6200052e818484620004e7565b505050565b5b8181101562000556576200054a60008262000517565b60018101905062000534565b5050565b601f821115620005a5576200056f8162000423565b6200057a8462000438565b810160208510156200058a578190505b620005a2620005998562000438565b83018262000533565b50505b505050565b600082821c905092915050565b6000620005ca60001984600802620005aa565b1980831691505092915050565b6000620005e58383620005b7565b9150826002028217905092915050565b620006008262000385565b67ffffffffffffffff8111156200061c576200061b62000390565b5b620006288254620003ee565b620006358282856200055a565b600060209050601f8311600181146200066d576000841562000658578287015190505b620006648582620005d7565b865550620006d4565b601f1984166200067d8662000423565b60005b82811015620006a75784890151825560018201915060208501945060208101905062000680565b86831015620006c75784890151620006c3601f891682620005b7565b8355505b6001600288020188555050505b505050505050565b61395080620006ec6000396000f3fe608060405234801561001057600080fd5b50600436106101da5760003560e01c806379cc679011610104578063a457c2d7116100a2578063ecfb49a311610071578063ecfb49a314610543578063f2fde38b14610561578063f4b9fa751461057d578063fe2b612d1461059b576101da565b8063a457c2d714610495578063a9059cbb146104c5578063dd62ed3e146104f5578063ea4a7bd714610525576101da565b8063952c4bc6116100de578063952c4bc61461042157806395d89b411461043d5780639940686e1461045b578063a3f2add814610477576101da565b806379cc6790146103c957806385f28e7d146103e55780638da5cb5b14610403576101da565b80633582c4c81161017c5780634453a3741161014b5780634453a374146103575780635fae8b3d1461037357806370a082311461038f578063715018a6146103bf576101da565b80633582c4c8146102d357806336e99599146102ef578063395093511461030b57806342966c681461033b576101da565b80631a9703da116101b85780631a9703da1461024b57806323b872dd1461026957806327de9e3214610299578063313ce567146102b5576101da565b806306fdde03146101df578063095ea7b3146101fd57806318160ddd1461022d575b600080fd5b6101e76105cb565b6040516101f491906124e7565b60405180910390f35b610217600480360381019061021291906125ac565b61065d565b6040516102249190612607565b60405180910390f35b610235610680565b6040516102429190612631565b60405180910390f35b61025361068a565b6040516102609190612631565b60405180910390f35b610283600480360381019061027e919061264c565b610690565b6040516102909190612607565b60405180910390f35b6102b360048036038101906102ae919061269f565b6106bf565b005b6102bd61096f565b6040516102ca91906126e8565b60405180910390f35b6102ed60048036038101906102e8919061269f565b610978565b005b6103096004803603810190610304919061269f565b61099c565b005b610325600480360381019061032091906125ac565b610c88565b6040516103329190612607565b60405180910390f35b6103556004803603810190610350919061269f565b610cbf565b005b610371600480360381019061036c919061272f565b610cd3565b005b61038d6004803603810190610388919061276f565b610d36565b005b6103a960048036038101906103a491906127af565b611080565b6040516103b69190612631565b60405180910390f35b6103c76110c8565b005b6103e360048036038101906103de91906125ac565b6110dc565b005b6103ed6110fc565b6040516103fa9190612631565b60405180910390f35b61040b611143565b60405161041891906127eb565b60405180910390f35b61043b60048036038101906104369190612a6c565b61116d565b005b6104456114e2565b60405161045291906124e7565b60405180910390f35b6104756004803603810190610470919061269f565b611574565b005b61047f611708565b60405161048c9190612631565b60405180910390f35b6104af60048036038101906104aa91906125ac565b61174f565b6040516104bc9190612607565b60405180910390f35b6104df60048036038101906104da91906125ac565b6117c6565b6040516104ec9190612607565b60405180910390f35b61050f600480360381019061050a9190612a9a565b6117e9565b60405161051c9190612631565b60405180910390f35b61052d611870565b60405161053a9190612b39565b60405180910390f35b61054b611896565b6040516105589190612631565b60405180910390f35b61057b600480360381019061057691906127af565b61189c565b005b61058561191f565b6040516105929190612b75565b60405180910390f35b6105b560048036038101906105b091906127af565b611945565b6040516105c29190612631565b60405180910390f35b6060600380546105da90612bbf565b80601f016020809104026020016040519081016040528092919081815260200182805461060690612bbf565b80156106535780601f1061062857610100808354040283529160200191610653565b820191906000526020600020905b81548152906001019060200180831161063657829003601f168201915b5050505050905090565b600080610668611a58565b9050610675818585611a60565b600191505092915050565b6000600254905090565b60085481565b60008061069b611a58565b90506106a8858285611c29565b6106b3858585611cb5565b60019150509392505050565b60008111610702576040517f08c379a00000000000000000000000000000000000000000000000000000000081526004016106f990612c3c565b60405180910390fd5b61070b33611080565b81111561074d576040517f08c379a000000000000000000000000000000000000000000000000000000000815260040161074490612ca8565b60405180910390fd5b6000600a54600760009054906101000a900473ffffffffffffffffffffffffffffffffffffffff1673ffffffffffffffffffffffffffffffffffffffff166370a08231306040518263ffffffff1660e01b81526004016107ad91906127eb565b602060405180830381865afa1580156107ca573d6000803e3d6000fd5b505050506040513d601f19601f820116820180604052508101906107ee9190612cdd565b836107f99190612d39565b6108039190612daa565b905081600a60008282546108179190612ddb565b9250508190555061082782610cbf565b600760009054906101000a900473ffffffffffffffffffffffffffffffffffffffff1673ffffffffffffffffffffffffffffffffffffffff1663095ea7b330836040518363ffffffff1660e01b8152600401610884929190612e0f565b6020604051808303816000875af11580156108a3573d6000803e3d6000fd5b505050506040513d601f19601f820116820180604052508101906108c79190612e4d565b50600760009054906101000a900473ffffffffffffffffffffffffffffffffffffffff1673ffffffffffffffffffffffffffffffffffffffff166323b872dd3033846040518463ffffffff1660e01b815260040161092793929190612e7a565b6020604051808303816000875af1158015610946573d6000803e3d6000fd5b505050506040513d601f19601f8201168201806040525081019061096a9190612e4d565b505050565b60006012905090565b610980611f2b565b662386f26fc10000816109939190612d39565b60088190555050565b600760009054906101000a900473ffffffffffffffffffffffffffffffffffffffff1673ffffffffffffffffffffffffffffffffffffffff166370a08231336040518263ffffffff1660e01b81526004016109f791906127eb565b602060405180830381865afa158015610a14573d6000803e3d6000fd5b505050506040513d601f19601f82011682018060405250810190610a389190612cdd565b811115610a7a576040517f08c379a0000000000000000000000000000000000000000000000000000000008152600401610a7190612efd565b60405180910390fd5b60003073ffffffffffffffffffffffffffffffffffffffff1663fe2b612d336040518263ffffffff1660e01b8152600401610ab591906127eb565b602060405180830381865afa158015610ad2573d6000803e3d6000fd5b505050506040513d601f19601f82011682018060405250810190610af69190612cdd565b905080600b60003373ffffffffffffffffffffffffffffffffffffffff1673ffffffffffffffffffffffffffffffffffffffff1681526020019081526020016000208190555080821115610b48578091505b600760009054906101000a900473ffffffffffffffffffffffffffffffffffffffff1673ffffffffffffffffffffffffffffffffffffffff166323b872dd3330856040518463ffffffff1660e01b8152600401610ba793929190612e7a565b6020604051808303816000875af1158015610bc6573d6000803e3d6000fd5b505050506040513d601f19601f82011682018060405250810190610bea9190612e4d565b5081600b60003373ffffffffffffffffffffffffffffffffffffffff1673ffffffffffffffffffffffffffffffffffffffff1681526020019081526020016000206000828254610c3a9190612ddb565b92505081905550600c60003373ffffffffffffffffffffffffffffffffffffffff1673ffffffffffffffffffffffffffffffffffffffff168152602001908152602001600020600090555050565b600080610c93611a58565b9050610cb4818585610ca585896117e9565b610caf9190612f1d565b611a60565b600191505092915050565b610cd0610cca611a58565b82611fa9565b50565b610cdb611f2b565b80600d60008473ffffffffffffffffffffffffffffffffffffffff1673ffffffffffffffffffffffffffffffffffffffff16815260200190815260200160002060006101000a81548160ff0219169083151502179055505050565b600760009054906101000a900473ffffffffffffffffffffffffffffffffffffffff1673ffffffffffffffffffffffffffffffffffffffff166370a08231336040518263ffffffff1660e01b8152600401610d9191906127eb565b602060405180830381865afa158015610dae573d6000803e3d6000fd5b505050506040513d601f19601f82011682018060405250810190610dd29190612cdd565b821115610dde57600080fd5b60011515600d60003373ffffffffffffffffffffffffffffffffffffffff1673ffffffffffffffffffffffffffffffffffffffff16815260200190815260200160002060009054906101000a900460ff16151514610e71576040517f08c379a0000000000000000000000000000000000000000000000000000000008152600401610e6890612f9d565b60405180910390fd5b60003073ffffffffffffffffffffffffffffffffffffffff1663fe2b612d836040518263ffffffff1660e01b8152600401610eac91906127eb565b602060405180830381865afa158015610ec9573d6000803e3d6000fd5b505050506040513d601f19601f82011682018060405250810190610eed9190612cdd565b905080600b60008473ffffffffffffffffffffffffffffffffffffffff1673ffffffffffffffffffffffffffffffffffffffff1681526020019081526020016000208190555080831115610f3f578092505b600760009054906101000a900473ffffffffffffffffffffffffffffffffffffffff1673ffffffffffffffffffffffffffffffffffffffff166323b872dd3330866040518463ffffffff1660e01b8152600401610f9e93929190612e7a565b6020604051808303816000875af1158015610fbd573d6000803e3d6000fd5b505050506040513d601f19601f82011682018060405250810190610fe19190612e4d565b5082600b60003373ffffffffffffffffffffffffffffffffffffffff1673ffffffffffffffffffffffffffffffffffffffff16815260200190815260200160002060008282546110319190612ddb565b92505081905550600c60008373ffffffffffffffffffffffffffffffffffffffff1673ffffffffffffffffffffffffffffffffffffffff16815260200190815260200160002060009055505050565b60008060008373ffffffffffffffffffffffffffffffffffffffff1673ffffffffffffffffffffffffffffffffffffffff168152602001908152602001600020549050919050565b6110d0611f2b565b6110da6000612176565b565b6110ee826110e8611a58565b83611c29565b6110f88282611fa9565b5050565b6000600b60003373ffffffffffffffffffffffffffffffffffffffff1673ffffffffffffffffffffffffffffffffffffffff16815260200190815260200160002054905090565b6000600560009054906101000a900473ffffffffffffffffffffffffffffffffffffffff16905090565b6111768161223c565b6111b5576040517f08c379a00000000000000000000000000000000000000000000000000000000081526004016111ac90613009565b60405180910390fd5b6000600b60003373ffffffffffffffffffffffffffffffffffffffff1673ffffffffffffffffffffffffffffffffffffffff1681526020019081526020016000205414611237576040517f08c379a000000000000000000000000000000000000000000000000000000000815260040161122e90613075565b60405180910390fd5b6000816060015160016002811061125157611250613095565b5b60200201519050600760009054906101000a900473ffffffffffffffffffffffffffffffffffffffff1673ffffffffffffffffffffffffffffffffffffffff166370a08231306040518263ffffffff1660e01b81526004016112b391906127eb565b602060405180830381865afa1580156112d0573d6000803e3d6000fd5b505050506040513d601f19601f820116820180604052508101906112f49190612cdd565b81111561130057600080fd5b80600b60003373ffffffffffffffffffffffffffffffffffffffff1673ffffffffffffffffffffffffffffffffffffffff168152602001908152602001600020600082825461134f9190612f1d565b9250508190555042600c60003373ffffffffffffffffffffffffffffffffffffffff1673ffffffffffffffffffffffffffffffffffffffff16815260200190815260200160002081905550600760009054906101000a900473ffffffffffffffffffffffffffffffffffffffff1673ffffffffffffffffffffffffffffffffffffffff1663095ea7b330836040518363ffffffff1660e01b81526004016113f7929190612e0f565b6020604051808303816000875af1158015611416573d6000803e3d6000fd5b505050506040513d601f19601f8201168201806040525081019061143a9190612e4d565b50600760009054906101000a900473ffffffffffffffffffffffffffffffffffffffff1673ffffffffffffffffffffffffffffffffffffffff166323b872dd3033846040518463ffffffff1660e01b815260040161149a93929190612e7a565b6020604051808303816000875af11580156114b9573d6000803e3d6000fd5b505050506040513d601f19601f820116820180604052508101906114dd9190612e4d565b505050565b6060600480546114f190612bbf565b80601f016020809104026020016040519081016040528092919081815260200182805461151d90612bbf565b801561156a5780601f1061153f5761010080835404028352916020019161156a565b820191906000526020600020905b81548152906001019060200180831161154d57829003601f168201915b5050505050905090565b600080600a54036115875781905061163e565b600760009054906101000a900473ffffffffffffffffffffffffffffffffffffffff1673ffffffffffffffffffffffffffffffffffffffff166370a08231306040518263ffffffff1660e01b81526004016115e291906127eb565b602060405180830381865afa1580156115ff573d6000803e3d6000fd5b505050506040513d601f19601f820116820180604052508101906116239190612cdd565b600a54836116319190612d39565b61163b9190612daa565b90505b600760009054906101000a900473ffffffffffffffffffffffffffffffffffffffff1673ffffffffffffffffffffffffffffffffffffffff166323b872dd3330856040518463ffffffff1660e01b815260040161169d93929190612e7a565b6020604051808303816000875af11580156116bc573d6000803e3d6000fd5b505050506040513d601f19601f820116820180604052508101906116e09190612e4d565b5080600a60008282546116f39190612f1d565b9250508190555061170433826122f7565b5050565b6000600c60003373ffffffffffffffffffffffffffffffffffffffff1673ffffffffffffffffffffffffffffffffffffffff16815260200190815260200160002054905090565b60008061175a611a58565b9050600061176882866117e9565b9050838110156117ad576040517f08c379a00000000000000000000000000000000000000000000000000000000081526004016117a490613136565b60405180910390fd5b6117ba8286868403611a60565b60019250505092915050565b6000806117d1611a58565b90506117de818585611cb5565b600191505092915050565b6000600160008473ffffffffffffffffffffffffffffffffffffffff1673ffffffffffffffffffffffffffffffffffffffff16815260200190815260200160002060008373ffffffffffffffffffffffffffffffffffffffff1673ffffffffffffffffffffffffffffffffffffffff16815260200190815260200160002054905092915050565b600660009054906101000a900473ffffffffffffffffffffffffffffffffffffffff1681565b600a5481565b6118a4611f2b565b600073ffffffffffffffffffffffffffffffffffffffff168173ffffffffffffffffffffffffffffffffffffffff1603611913576040517f08c379a000000000000000000000000000000000000000000000000000000000815260040161190a906131c8565b60405180910390fd5b61191c81612176565b50565b600760009054906101000a900473ffffffffffffffffffffffffffffffffffffffff1681565b600080670de0b6b3a7640000600954600c60008673ffffffffffffffffffffffffffffffffffffffff1673ffffffffffffffffffffffffffffffffffffffff168152602001908152602001600020544261199f9190612ddb565b600b60008773ffffffffffffffffffffffffffffffffffffffff1673ffffffffffffffffffffffffffffffffffffffff168152602001908152602001600020546119e99190612d39565b6119f39190612d39565b6119fd9190612daa565b9050600081600b60008673ffffffffffffffffffffffffffffffffffffffff1673ffffffffffffffffffffffffffffffffffffffff16815260200190815260200160002054611a4c9190612f1d565b90508092505050919050565b600033905090565b600073ffffffffffffffffffffffffffffffffffffffff168373ffffffffffffffffffffffffffffffffffffffff1603611acf576040517f08c379a0000000000000000000000000000000000000000000000000000000008152600401611ac69061325a565b60405180910390fd5b600073ffffffffffffffffffffffffffffffffffffffff168273ffffffffffffffffffffffffffffffffffffffff1603611b3e576040517f08c379a0000000000000000000000000000000000000000000000000000000008152600401611b35906132ec565b60405180910390fd5b80600160008573ffffffffffffffffffffffffffffffffffffffff1673ffffffffffffffffffffffffffffffffffffffff16815260200190815260200160002060008473ffffffffffffffffffffffffffffffffffffffff1673ffffffffffffffffffffffffffffffffffffffff168152602001908152602001600020819055508173ffffffffffffffffffffffffffffffffffffffff168373ffffffffffffffffffffffffffffffffffffffff167f8c5be1e5ebec7d5bd14f71427d1e84f3dd0314c0f7b2291e5b200ac8c7c3b92583604051611c1c9190612631565b60405180910390a3505050565b6000611c3584846117e9565b90507fffffffffffffffffffffffffffffffffffffffffffffffffffffffffffffffff8114611caf5781811015611ca1576040517f08c379a0000000000000000000000000000000000000000000000000000000008152600401611c9890613358565b60405180910390fd5b611cae8484848403611a60565b5b50505050565b600073ffffffffffffffffffffffffffffffffffffffff168373ffffffffffffffffffffffffffffffffffffffff1603611d24576040517f08c379a0000000000000000000000000000000000000000000000000000000008152600401611d1b906133ea565b60405180910390fd5b600073ffffffffffffffffffffffffffffffffffffffff168273ffffffffffffffffffffffffffffffffffffffff1603611d93576040517f08c379a0000000000000000000000000000000000000000000000000000000008152600401611d8a9061347c565b60405180910390fd5b611d9e83838361244d565b60008060008573ffffffffffffffffffffffffffffffffffffffff1673ffffffffffffffffffffffffffffffffffffffff16815260200190815260200160002054905081811015611e24576040517f08c379a0000000000000000000000000000000000000000000000000000000008152600401611e1b9061350e565b60405180910390fd5b8181036000808673ffffffffffffffffffffffffffffffffffffffff1673ffffffffffffffffffffffffffffffffffffffff16815260200190815260200160002081905550816000808573ffffffffffffffffffffffffffffffffffffffff1673ffffffffffffffffffffffffffffffffffffffff168152602001908152602001600020600082825401925050819055508273ffffffffffffffffffffffffffffffffffffffff168473ffffffffffffffffffffffffffffffffffffffff167fddf252ad1be2c89b69c2b068fc378daa952ba7f163c4a11628f55a4df523b3ef84604051611f129190612631565b60405180910390a3611f25848484612452565b50505050565b611f33611a58565b73ffffffffffffffffffffffffffffffffffffffff16611f51611143565b73ffffffffffffffffffffffffffffffffffffffff1614611fa7576040517f08c379a0000000000000000000000000000000000000000000000000000000008152600401611f9e9061357a565b60405180910390fd5b565b600073ffffffffffffffffffffffffffffffffffffffff168273ffffffffffffffffffffffffffffffffffffffff1603612018576040517f08c379a000000000000000000000000000000000000000000000000000000000815260040161200f9061360c565b60405180910390fd5b6120248260008361244d565b60008060008473ffffffffffffffffffffffffffffffffffffffff1673ffffffffffffffffffffffffffffffffffffffff168152602001908152602001600020549050818110156120aa576040517f08c379a00000000000000000000000000000000000000000000000000000000081526004016120a19061369e565b60405180910390fd5b8181036000808573ffffffffffffffffffffffffffffffffffffffff1673ffffffffffffffffffffffffffffffffffffffff1681526020019081526020016000208190555081600260008282540392505081905550600073ffffffffffffffffffffffffffffffffffffffff168373ffffffffffffffffffffffffffffffffffffffff167fddf252ad1be2c89b69c2b068fc378daa952ba7f163c4a11628f55a4df523b3ef8460405161215d9190612631565b60405180910390a361217183600084612452565b505050565b6000600560009054906101000a900473ffffffffffffffffffffffffffffffffffffffff16905081600560006101000a81548173ffffffffffffffffffffffffffffffffffffffff021916908373ffffffffffffffffffffffffffffffffffffffff1602179055508173ffffffffffffffffffffffffffffffffffffffff168173ffffffffffffffffffffffffffffffffffffffff167f8be0079c531659141344cd1fd0a4f28419497f9722a3daafe3b4186f6b6457e060405160405180910390a35050565b6000600660009054906101000a900473ffffffffffffffffffffffffffffffffffffffff1673ffffffffffffffffffffffffffffffffffffffff1663f5c9d69e83600001518460200151856040015186606001516040518563ffffffff1660e01b81526004016122af9493929190613867565b602060405180830381865afa1580156122cc573d6000803e3d6000fd5b505050506040513d601f19601f820116820180604052508101906122f09190612e4d565b9050919050565b600073ffffffffffffffffffffffffffffffffffffffff168273ffffffffffffffffffffffffffffffffffffffff1603612366576040517f08c379a000000000000000000000000000000000000000000000000000000000815260040161235d906138fa565b60405180910390fd5b6123726000838361244d565b80600260008282546123849190612f1d565b92505081905550806000808473ffffffffffffffffffffffffffffffffffffffff1673ffffffffffffffffffffffffffffffffffffffff168152602001908152602001600020600082825401925050819055508173ffffffffffffffffffffffffffffffffffffffff16600073ffffffffffffffffffffffffffffffffffffffff167fddf252ad1be2c89b69c2b068fc378daa952ba7f163c4a11628f55a4df523b3ef836040516124359190612631565b60405180910390a361244960008383612452565b5050565b505050565b505050565b600081519050919050565b600082825260208201905092915050565b60005b83811015612491578082015181840152602081019050612476565b60008484015250505050565b6000601f19601f8301169050919050565b60006124b982612457565b6124c38185612462565b93506124d3818560208601612473565b6124dc8161249d565b840191505092915050565b6000602082019050818103600083015261250181846124ae565b905092915050565b6000604051905090565b600080fd5b600073ffffffffffffffffffffffffffffffffffffffff82169050919050565b600061254382612518565b9050919050565b61255381612538565b811461255e57600080fd5b50565b6000813590506125708161254a565b92915050565b6000819050919050565b61258981612576565b811461259457600080fd5b50565b6000813590506125a681612580565b92915050565b600080604083850312156125c3576125c2612513565b5b60006125d185828601612561565b92505060206125e285828601612597565b9150509250929050565b60008115159050919050565b612601816125ec565b82525050565b600060208201905061261c60008301846125f8565b92915050565b61262b81612576565b82525050565b60006020820190506126466000830184612622565b92915050565b60008060006060848603121561266557612664612513565b5b600061267386828701612561565b935050602061268486828701612561565b925050604061269586828701612597565b9150509250925092565b6000602082840312156126b5576126b4612513565b5b60006126c384828501612597565b91505092915050565b600060ff82169050919050565b6126e2816126cc565b82525050565b60006020820190506126fd60008301846126d9565b92915050565b61270c816125ec565b811461271757600080fd5b50565b60008135905061272981612703565b92915050565b6000806040838503121561274657612745612513565b5b600061275485828601612561565b92505060206127658582860161271a565b9150509250929050565b6000806040838503121561278657612785612513565b5b600061279485828601612597565b92505060206127a585828601612561565b9150509250929050565b6000602082840312156127c5576127c4612513565b5b60006127d384828501612561565b91505092915050565b6127e581612538565b82525050565b600060208201905061280060008301846127dc565b92915050565b600080fd5b7f4e487b7100000000000000000000000000000000000000000000000000000000600052604160045260246000fd5b6128438261249d565b810181811067ffffffffffffffff821117156128625761286161280b565b5b80604052505050565b6000612875612509565b9050612881828261283a565b919050565b600080fd5b600067ffffffffffffffff8211156128a6576128a561280b565b5b602082029050919050565b600080fd5b60006128c96128c48461288b565b61286b565b905080602084028301858111156128e3576128e26128b1565b5b835b8181101561290c57806128f88882612597565b8452602084019350506020810190506128e5565b5050509392505050565b600082601f83011261292b5761292a612886565b5b60026129388482856128b6565b91505092915050565b600067ffffffffffffffff82111561295c5761295b61280b565b5b602082029050919050565b600061297a61297584612941565b61286b565b90508060408402830185811115612994576129936128b1565b5b835b818110156129bd57806129a98882612916565b845260208401935050604081019050612996565b5050509392505050565b600082601f8301126129dc576129db612886565b5b60026129e9848285612967565b91505092915050565b60006101408284031215612a0957612a08612806565b5b612a13608061286b565b90506000612a2384828501612916565b6000830152506040612a37848285016129c7565b60208301525060c0612a4b84828501612916565b604083015250610100612a6084828501612916565b60608301525092915050565b60006101408284031215612a8357612a82612513565b5b6000612a91848285016129f2565b91505092915050565b60008060408385031215612ab157612ab0612513565b5b6000612abf85828601612561565b9250506020612ad085828601612561565b9150509250929050565b6000819050919050565b6000612aff612afa612af584612518565b612ada565b612518565b9050919050565b6000612b1182612ae4565b9050919050565b6000612b2382612b06565b9050919050565b612b3381612b18565b82525050565b6000602082019050612b4e6000830184612b2a565b92915050565b6000612b5f82612b06565b9050919050565b612b6f81612b54565b82525050565b6000602082019050612b8a6000830184612b66565b92915050565b7f4e487b7100000000000000000000000000000000000000000000000000000000600052602260045260246000fd5b60006002820490506001821680612bd757607f821691505b602082108103612bea57612be9612b90565b5b50919050565b7f7a646169203d2030000000000000000000000000000000000000000000000000600082015250565b6000612c26600883612462565b9150612c3182612bf0565b602082019050919050565b60006020820190508181036000830152612c5581612c19565b9050919050565b7f7a646169204e6f7420656e6f7567680000000000000000000000000000000000600082015250565b6000612c92600f83612462565b9150612c9d82612c5c565b602082019050919050565b60006020820190508181036000830152612cc181612c85565b9050919050565b600081519050612cd781612580565b92915050565b600060208284031215612cf357612cf2612513565b5b6000612d0184828501612cc8565b91505092915050565b7f4e487b7100000000000000000000000000000000000000000000000000000000600052601160045260246000fd5b6000612d4482612576565b9150612d4f83612576565b9250828202612d5d81612576565b91508282048414831517612d7457612d73612d0a565b5b5092915050565b7f4e487b7100000000000000000000000000000000000000000000000000000000600052601260045260246000fd5b6000612db582612576565b9150612dc083612576565b925082612dd057612dcf612d7b565b5b828204905092915050565b6000612de682612576565b9150612df183612576565b9250828203905081811115612e0957612e08612d0a565b5b92915050565b6000604082019050612e2460008301856127dc565b612e316020830184612622565b9392505050565b600081519050612e4781612703565b92915050565b600060208284031215612e6357612e62612513565b5b6000612e7184828501612e38565b91505092915050565b6000606082019050612e8f60008301866127dc565b612e9c60208301856127dc565b612ea96040830184612622565b949350505050565b7f4e6f20656e6f7567682064616900000000000000000000000000000000000000600082015250565b6000612ee7600d83612462565b9150612ef282612eb1565b602082019050919050565b60006020820190508181036000830152612f1681612eda565b9050919050565b6000612f2882612576565b9150612f3383612576565b9250828201905080821115612f4b57612f4a612d0a565b5b92915050565b7f596f7520617265206e6f74206c697175696461746f7200000000000000000000600082015250565b6000612f87601683612462565b9150612f9282612f51565b602082019050919050565b60006020820190508181036000830152612fb681612f7a565b9050919050565b7f566572696669636174696f6e204661696c656400000000000000000000000000600082015250565b6000612ff3601383612462565b9150612ffe82612fbd565b602082019050919050565b6000602082019050818103600083015261302281612fe6565b9050919050565b7f596f752073686f756c6420726570617920646562742066697273740000000000600082015250565b600061305f601b83612462565b915061306a82613029565b602082019050919050565b6000602082019050818103600083015261308e81613052565b9050919050565b7f4e487b7100000000000000000000000000000000000000000000000000000000600052603260045260246000fd5b7f45524332303a2064656372656173656420616c6c6f77616e63652062656c6f7760008201527f207a65726f000000000000000000000000000000000000000000000000000000602082015250565b6000613120602583612462565b915061312b826130c4565b604082019050919050565b6000602082019050818103600083015261314f81613113565b9050919050565b7f4f776e61626c653a206e6577206f776e657220697320746865207a65726f206160008201527f6464726573730000000000000000000000000000000000000000000000000000602082015250565b60006131b2602683612462565b91506131bd82613156565b604082019050919050565b600060208201905081810360008301526131e1816131a5565b9050919050565b7f45524332303a20617070726f76652066726f6d20746865207a65726f2061646460008201527f7265737300000000000000000000000000000000000000000000000000000000602082015250565b6000613244602483612462565b915061324f826131e8565b604082019050919050565b6000602082019050818103600083015261327381613237565b9050919050565b7f45524332303a20617070726f766520746f20746865207a65726f20616464726560008201527f7373000000000000000000000000000000000000000000000000000000000000602082015250565b60006132d6602283612462565b91506132e18261327a565b604082019050919050565b60006020820190508181036000830152613305816132c9565b9050919050565b7f45524332303a20696e73756666696369656e7420616c6c6f77616e6365000000600082015250565b6000613342601d83612462565b915061334d8261330c565b602082019050919050565b6000602082019050818103600083015261337181613335565b9050919050565b7f45524332303a207472616e736665722066726f6d20746865207a65726f20616460008201527f6472657373000000000000000000000000000000000000000000000000000000602082015250565b60006133d4602583612462565b91506133df82613378565b604082019050919050565b60006020820190508181036000830152613403816133c7565b9050919050565b7f45524332303a207472616e7366657220746f20746865207a65726f206164647260008201527f6573730000000000000000000000000000000000000000000000000000000000602082015250565b6000613466602383612462565b91506134718261340a565b604082019050919050565b6000602082019050818103600083015261349581613459565b9050919050565b7f45524332303a207472616e7366657220616d6f756e742065786365656473206260008201527f616c616e63650000000000000000000000000000000000000000000000000000602082015250565b60006134f8602683612462565b91506135038261349c565b604082019050919050565b60006020820190508181036000830152613527816134eb565b9050919050565b7f4f776e61626c653a2063616c6c6572206973206e6f7420746865206f776e6572600082015250565b6000613564602083612462565b915061356f8261352e565b602082019050919050565b6000602082019050818103600083015261359381613557565b9050919050565b7f45524332303a206275726e2066726f6d20746865207a65726f2061646472657360008201527f7300000000000000000000000000000000000000000000000000000000000000602082015250565b60006135f6602183612462565b91506136018261359a565b604082019050919050565b60006020820190508181036000830152613625816135e9565b9050919050565b7f45524332303a206275726e20616d6f756e7420657863656564732062616c616e60008201527f6365000000000000000000000000000000000000000000000000000000000000602082015250565b6000613688602283612462565b91506136938261362c565b604082019050919050565b600060208201905081810360008301526136b78161367b565b9050919050565b600060029050919050565b600081905092915050565b6000819050919050565b6136e781612576565b82525050565b60006136f983836136de565b60208301905092915050565b6000602082019050919050565b61371b816136be565b61372581846136c9565b9250613730826136d4565b8060005b8381101561376157815161374887826136ed565b965061375383613705565b925050600181019050613734565b505050505050565b600060029050919050565b600081905092915050565b6000819050919050565b600081905092915050565b61379d816136be565b6137a78184613789565b92506137b2826136d4565b8060005b838110156137e35781516137ca87826136ed565b96506137d583613705565b9250506001810190506137b6565b505050505050565b60006137f78383613794565b60408301905092915050565b6000602082019050919050565b61381981613769565b6138238184613774565b925061382e8261377f565b8060005b8381101561385f57815161384687826137eb565b965061385183613803565b925050600181019050613832565b505050505050565b60006101408201905061387d6000830187613712565b61388a6040830186613810565b61389760c0830185613712565b6138a5610100830184613712565b95945050505050565b7f45524332303a206d696e7420746f20746865207a65726f206164647265737300600082015250565b60006138e4601f83612462565b91506138ef826138ae565b602082019050919050565b60006020820190508181036000830152613913816138d7565b905091905056fea264697066735822122033674b15a4028593b236365495a217073bd838adaa51f530ed9a77dfb4406e4864736f6c63430008110033",
  "linkReferences": {},
  "deployedLinkReferences": {}
}